:020000040800F2
:1000000008100020C9070008990600089B06000890
:100010009D0600089F060008A106000800000000D9
:10002000000000000000000000000000A30600081F
:10003000A506000800000000A7060008A9060008A1
:10004000E5070008E9070008ED070008F1070008C8
:10005000F5070008F9070008FD0700080108000877
:1000600005080008090800080D0800081108000824
:1000700015080008190800081D08000821080008D4
:1000800025080008290800082D0800083108000884
:1000900035080008390800083D0800084108000834
:1000A00045080008490800084D08000851080008E4
:1000B00055080008590800085D0800086108000894
:1000C00065080008690800086D0800087108000844
:1000D00075080008790800087D08000881080008F4
:1000E000AB06000885080008890800088D0800088C
:1000F0009108000800000000950800089908000811
:100100009D080008A1080008A5080008A908000823
:10011000AD080008B1080008B5080008B9080008D3
:10012000BD0800086848006850F001006649086092
:100130006648006830F01000644908606348006851
:1001400050F02000614908606048006830F04000CD
:100150005E4908605D48006850F080005B490860B7
:100160005B48008850F008005949088058480088CA
:1001700050F00400564908805648006850F01000BE
:10018000544908605348006830F020005149086025
:100190005048006850F040004E4908604D480068E3
:1001A00030F080004B4908604B48006830F4006034
:1001B000494908604848006850F480604649086032
:1001C0004548006850F400704349086042480068A0
:1001D00050F48070404908603F48006830F40040A7
:1001E0003D4908603C48006850F480403A49086046
:1001F0003948006850F400503749086036480068B4
:1002000050F480503449086070473449098851F0EF
:100210000801324A1180C0B2314908803148008853
:100220004006FBD52F4801884FF6BF7001402D488E
:100230000180704780B52948008850F004002749A4
:100240000880284800888006FBD525480088C0B271
:100250004F2802D100F0A3F801E000F0BFF801BD83
:100260002148006850F400301F4908601B4800888E
:1002700050F4005019490880184801884EF6FF7064
:10028000014016480180194801884CF6FF70014072
:1002900016480180164801884FF6BF700140144887
:1002A000018040F2836013490880114801884FF6AD
:1002B0007F7001400E480180084800884004400CCF
:1002C00006490880704700001C38024000000240C8
:1002D000040002400C000240200002400C44004098
:1002E00004440040004400402438024010440040D0
:1002F00014440040084400404048006850F00200A8
:100300003E4908603E48006850F004003C490860DF
:100310003B48006830F008003949086038480068F8
:1003200050F01000364908603548006830F0200071
:10033000334908603248006850F480103049086042
:100340002F48006830F400102D4908602C480068E0
:1003500050F480002A4908602948006830F4000001
:1003600027490860274801884FF6FD70014025485D
:100370000180244801884FF6FB700140214801802C
:10038000204801884FF6FF3001401E4801801D487B
:1003900001884FF2FF7001401A480180704780B514
:1003A0001948008850F00200174908801648008854
:1003B00050F0040014490880144800F029F812484D
:1003C00001884FF6FD7001400F4801800E480188FA
:1003D0004FF6FB7001400C48018001BD0A480188BE
:1003E0004FF6FD70014008480180074801884FF62C
:1003F000FD70014004480180704700001C38024035
:1004000000040240040402401404024040420F0071
:10041000002100E0491C8142FCD3704780B5FFF702
:1004200081FEFFF71DFFFFF767FF00F03CF800F0CB
:100430001BF8094801884FF6F97001400648018011
:10044000002006490870002005490870054800880A
:10045000FFF7F0FEFAE7000014040240000000205D
:1004600001000020100002402548006850F0010003
:10047000234908602348006830F44000214908609F
:100480002048006830F040701E4908601E4800682F
:1004900030F440001C4908601B48006830F0407090
:1004A0001949086070471948006850F4807017496E
:1004B00008601748006850F00100154908601548A9
:1004C000006850F40060134908601348006850F455
:1004D0000060114908600F48006850F480500D49D1
:1004E00008600D48006850F480500B4908600B48C4
:1004F00000680A4908600A480068094908607047AE
:100500001C380240000002400C00024004E100E000
:1005100020380240000401400C040140100001405A
:100520001400014080B55248006850F48070504972
:10053000086050480168504801404E4801604C48EE
:1005400001684E4801404A4801604948006830F45B
:100550008020474908604748006830F47D004549DD
:10056000086000204649086000F005F85FF0006070
:100570004449086001BD82B0002001900020009035
:100580003B48006850F480303949086038480068BA
:1005900010F4003000900198401C01900098002851
:1005A00003D10198B0F5A04FF0D131480068800325
:1005B00002D50120009001E0002000900098012861
:1005C00053D13148006850F004002F4908602E488C
:1005D000006850F002002C4908602B48006850F079
:1005E0000100294908602948006850F080502749D7
:1005F00008604FF400602649086026480068C0067D
:10060000FBD41C4800681B4908601A480068194957
:10061000086018480068174908601648006830F4F8
:100620007D00144908601348006850F41100114916
:1006300008600F48006850F080700D4908600C4851
:1006400000688001FBD50B480068800880000949DC
:1006500008600848006850F0030006490860054833
:10066000006810F00C000C28F9D102B070470000AF
:1006700000380240083802400CC0FF88FEFFFEEE42
:100680000C38024008ED00E0003C024024380240F3
:1006900000700040047000407047FEE7FEE7FEE790
:1006A000FEE7704770477047704780B51248006892
:1006B000000511D54F201149087010480078FFF748
:1006C000A4FD0D48006850F400600B4908600C4818
:1006D0000078C0430A49087007480068C0040AD57A
:1006E0000548006850F480500349086005480078C8
:1006F000C0430449087001BD1404014002000020F9
:10070000000000200100002019E050F8042BD3075E
:1007100044BFA9F101039A18091F0023042942F8D4
:10072000043BF9D25FEA817C134604D54FF0000CFC
:10073000A2F800C09B1CC90744BF0021197050F8E3
:10074000041B0029E1D1704710B5074979441831DD
:10075000064C7C44163404E00A68081D114488479E
:100760000146A142F8D110BD0800000014000000AD
:1007700099FFFFFF040000000000002000000000BF
:1007800000F00DF8002801D0FFF7DEFFAFF3008086
:100790000020AFF30080FFF741FE00F002F80120D7
:1007A000704700F001B800000746384600F002F834
:1007B000FBE7000080B5AFF30080024A110018206B
:1007C000ABBEFBE726000200014880470148004716
:1007D00025050008D9070008AFF30080AFF30080BB
:1007E000FFF7CEFFFFF7FEBFFFF7FEBFFFF7FEBF2D
:1007F000FFF7FEBFFFF7FEBFFFF7FEBFFFF7FEBF2D
:10080000FFF7FEBFFFF7FEBFFFF7FEBFFFF7FEBF1C
:10081000FFF7FEBFFFF7FEBFFFF7FEBFFFF7FEBF0C
:10082000FFF7FEBFFFF7FEBFFFF7FEBFFFF7FEBFFC
:10083000FFF7FEBFFFF7FEBFFFF7FEBFFFF7FEBFEC
:10084000FFF7FEBFFFF7FEBFFFF7FEBFFFF7FEBFDC
:10085000FFF7FEBFFFF7FEBFFFF7FEBFFFF7FEBFCC
:10086000FFF7FEBFFFF7FEBFFFF7FEBFFFF7FEBFBC
:10087000FFF7FEBFFFF7FEBFFFF7FEBFFFF7FEBFAC
:10088000FFF7FEBFFFF7FEBFFFF7FEBFFFF7FEBF9C
:10089000FFF7FEBFFFF7FEBFFFF7FEBFFFF7FEBF8C
:1008A000FFF7FEBFFFF7FEBFFFF7FEBFFFF7FEBF7C
:1008B000FFF7FEBFFFF7FEBFFFF7FEBFFFF7FEBF6C
:04000005080007D90F
:00000001FF
