:020000040800F2
:1000000008100020FD0C0008650B0008670B0008B5
:10001000690B00086B0B00086D0B00080000000066
:100020000000000000000000000000006F0B00084E
:10003000710B000800000000730B0008750B00082E
:10004000190D00081D0D0008210D0008250D0008E0
:10005000290D00082D0D0008310D0008350D000890
:10006000390D00083D0D0008410D0008450D000840
:10007000490D00084D0D0008510D0008550D0008F0
:10008000590D00085D0D0008610D0008650D0008A0
:10009000690D00086D0D0008710D0008DF0B0008E8
:1000A000750D0008790D00087D0D0008810D000810
:1000B000C50B0008850D0008890D00088D0D00088E
:1000C000910D0008950D0008990D00089D0D000880
:1000D000A10D0008A50D0008A90D0008AD0D000830
:1000E000770B0008B10D0008B50D0008B90D000828
:1000F000BD0D000800000000C10D0008C50D00087E
:10010000C90D0008CD0D0008D10D0008D50D00085F
:10011000D90D0008DD0D0008E10D0008E50D00080F
:10012000E90D00080020DFF8CC1408700020DFF88B
:10013000C81408700020DFF8C41408700020DFF82D
:10014000C0140870DFF8BC04006850F00100DFF84C
:10015000B4140860DFF8B004006850F48050DFF891
:10016000A8140860DFF8A404006830F48060DFF8A9
:100170009C140860DFF89404006850F40060DFF815
:100180008C140860DFF88404006830F48040DFF8E5
:100190007C140860DFF87404006850F40040DFF855
:1001A0006C140860DFF86404006830F40030DFF895
:1001B0005C140860DFF85404006850F48030DFF805
:1001C0004C140860DFF8480401884FF6DF700140E6
:1001D000DFF83C040180DFF8380401884FF67F70B7
:1001E0000140DFF82C040180DFF8240401884FF679
:1001F000FF600140DFF818040180DFF81804006890
:1002000050F4A000DFF80C140860DFF80804006860
:1002100050F0A040DFF8FC130860DFF8FC03018811
:100220004FF6F7700140DFF8F0030180DFF8E803D4
:10023000008850F01000DFF8E0130880DFF8D803E2
:1002400001884FF6DF700140DFF8CC030180DFF852
:10025000C803008850F00100DFF8BC130880DFF805
:10026000B803008850F00200DFF8AC130880DFF814
:10027000A803008850F00400DFF89C130880DFF822
:10028000980301884FF2FF700140DFF88C03018072
:10029000DFF8840301884FF67F700140DFF87803B0
:1002A0000180DFF87403008850F48040DFF86813A1
:1002B0000880DFF86403008850F40040DFF858132A
:1002C0000880DFF85803008850F00400DFF84C1372
:1002D0000880DFF84403008850F04000DFF838134E
:1002E0000880704738B504000D0000F01EF800F0DB
:1002F00025F82000C0B200F00DF82800C0B200F0D0
:1003000009F8DFF81C03008880B20006F9D400F079
:100310000CF831BDDFF80813098889B28907F9D5CF
:10032000C0B2DFF8001308807047DFF8FC020088D5
:1003300050F48070DFF8F01208807047DFF8E802B0
:1003400001884FF6FF600140DFF8DC020180704752
:1003500080B500210C20FFF7C5FF01210C20FFF71D
:10036000C1FF0A210A20FFF7BDFF0F210920FFF777
:10037000B9FF03210B20FFF7B5FF00210F20FFF786
:10038000B1FF00210120FFF7ADFF00210220FFF7A0
:10039000A9FF00210320FFF7A5FF00210420FFF79C
:1003A000A1FF01BDDFF88402006850F00100DFF812
:1003B0007C120860DFF8780201884FF6FE70014079
:1003C000DFF86C0201805FF08040008850F001008F
:1003D0005FF0804108805FF0804001884FF6EF7049
:1003E00001405FF0804001805FF0804001884FF65F
:1003F0009F7001405FF0804001805FF08040008886
:1004000050F080005FF08041088040F67F40DFF8C8
:100410002412088040F6C410DFF81C1208607047F0
:10042000DFF81802006850F08050DFF81012086002
:10043000DFF80C02008850F00100DFF80412088099
:10044000DFF80002006850F48070DFF8F8110860EF
:10045000DFF8E801006850F40000DFF8E011086000
:10046000DFF8A401006850F00100DFF89C1108607B
:10047000DFF8D401006850F40060DFF8CC110860A8
:10048000DFF8C801006850F40060DFF8C0110860B0
:10049000DFF8B401006850F48050DFF8AC11086058
:1004A000DFF8A801006850F48050DFF8A011086060
:1004B000DFF89401006850F02000DFF88C1108602C
:1004C000DFF88801006850F02000DFF88011086034
:1004D000DFF87401006850F04000DFF86C1108602C
:1004E000DFF86801006850F04000DFF86011086034
:1004F000DFF85C01006830F48050DFF854110860C8
:10050000DFF84C01006830F40050DFF84411086057
:10051000DFF83C01006830F48040DFF834110860F7
:10052000DFF82C01006830F40040DFF82411086087
:10053000DFF82001006840084000DFF8181108606B
:10054000DFF81001006830F00200DFF808110860E1
:10055000DFF80001006830F00400DFF8F8100860F0
:10056000DFF8F000006830F00800DFF8E8100860FD
:10057000DFF8E400006830F01000DFF8DC100860FD
:10058000DFF8D400006850F02000DFF8CC100860DD
:10059000DFF8C400006830F04000DFF8BC100860ED
:1005A000DFF8B400006830F08000DFF8AC100860BD
:1005B000DFF8A400006830F48070DFF89C10086059
:1005C000DFF89400006850F40070DFF88C100860C9
:1005D000DFF88400006830F48060DFF87C10086089
:1005E000DFF87400006830F40060DFF86C10086019
:1005F00070470000020000200300002004000020DB
:10060000050000201C380240203802400000024053
:10061000040002402000024000300140043001404C
:10062000083001400C3001401400024024380240E0
:1006300010000040280000402C00004000E100E0D5
:100640000C00004004E100E0000401400C04014003
:1006500010000140140001400C000140684800688F
:1006600050F00100664908606648006830F01000EC
:10067000644908606348006850F0200061490860E0
:100680006048006830F040005E4908605D480068DE
:1006900050F080005B4908605B48008850F008001B
:1006A000594908805848008850F00400564908808D
:1006B0005648006850F010005449086053480068DC
:1006C00030F02000514908605048006850F0400068
:1006D0004E4908604D48006830F080004B49086082
:1006E0004B48006830F40060494908604848006899
:1006F00050F48060464908604548006850F4007036
:10070000434908604248006850F4807040490860DE
:100710003F48006830F400403D4908603C480068AC
:1007200050F480403A4908603948006850F400505D
:10073000374908603648006850F4805034490860F2
:1007400070473449098851F00801324A1180C0B21B
:1007500031490880314800884006FBD52F48018880
:100760004FF6BF7001402D480180704780B5294881
:10077000008850F004002749088028480088800637
:10078000FBD525480088C0B24F2802D100F0A3F85D
:1007900001E000F0BFF801BD2148006850F40030CE
:1007A0001F4908601B48008850F400501949088010
:1007B000184801884EF6FF7001401648018019481C
:1007C00001884CF6FF7001401648018016480188E8
:1007D0004FF6BF7001401448018040F28360134916
:1007E0000880114801884FF67F7001400E48018053
:1007F000084800884004400C064908807047000003
:100800001C38024000000240040002400C0002407C
:10081000200002400C4400400444004000440040DA
:100820002438024010440040144400400844004072
:100830004048006850F002003E4908603E480068A9
:1008400050F004003C4908603B48006830F0080064
:10085000394908603848006850F01000364908608F
:100860003548006830F0200033490860324800689D
:1008700050F48010304908602F48006830F40010B0
:100880002D4908602C48006850F480002A4908600F
:100890002948006830F4000027490860274801888B
:1008A0004FF6FD70014025480180244801884FF62D
:1008B000FB70014021480180204801884FF6FF303D
:1008C00001401E4801801D4801884FF2FF70014021
:1008D0001A480180704780B51948008850F002001E
:1008E000174908801648008850F004001449088011
:1008F000144800F029F8124801884FF6FD700140B5
:100900000F4801800E4801884FF6FB7001400C48EB
:10091000018001BD0A4801884FF6FD70014008487A
:100920000180074801884FF6FD70014004480180AE
:10093000704700001C3802400004024004040240DA
:100940001404024040420F00002100E0491C814293
:10095000FCD3704780B5FFF781FEFFF71DFFFFF75F
:1009600067FFFFF75DFD00F01DF80C4801884FF6AA
:10097000F970014009480180FFF7D4FBFFF7E8FC5C
:10098000FFF710FDFFF74CFD00210920FFF7AAFC3F
:1009900003480088FFF7EAFEFAE70000140402406B
:1009A000100002400F48006850F001000D49086037
:1009B0000D48006830F440000B4908600A480068A0
:1009C00030F04070084908600848006830F4400082
:1009D000064908600548006830F040700349086027
:1009E000704700BF1C380240000002400C0002406B
:1009F00080B55248006850F48070504908605048F3
:100A00000168504801404E4801604C4801684E481A
:100A100001404A4801604948006830F48020474955
:100A200008604748006830F47D00454908600020B0
:100A30004649086000F005F85FF00060444908602E
:100A400001BD82B000200190002000903B4800686A
:100A500050F48030394908603848006810F400309C
:100A600000900198401C01900098002803D1019843
:100A7000B0F5A04FF0D131480068800302D50120C5
:100A8000009001E0002000900098012853D13148E7
:100A9000006850F004002F4908602E48006850F0AC
:100AA00002002C4908602B48006850F001002949D9
:100AB00008602948006850F08050274908604FF4CA
:100AC00000602649086026480068C006FBD41C4820
:100AD00000681B4908601A480068194908601848EE
:100AE0000068174908601648006830F47D00144912
:100AF00008601348006850F41100114908600F485D
:100B0000006850F080700D4908600C480068800152
:100B1000FBD50B4800688008800009490860084838
:100B2000006850F00300064908600548006810F0AE
:100B30000C000C28F9D102B07047000000380240C8
:100B4000083802400CC0FF88FEFFFEEE0C38024061
:100B500008ED00E0003C02402438024000700040F4
:100B6000047000407047FEE7FEE7FEE7FEE77047CF
:100B700070477047704780B528480068000511D558
:100B800049202749087026480078FFF7DAFD2348F6
:100B9000006850F400602149086022480078C04392
:100BA000204908701D480068C0040AD51B48006829
:100BB00050F48050194908601B480078C0431A4916
:100BC000087001BD194801884FF6FE7001401748B2
:100BD000018017480078C0431549087070470F48D6
:100BE000006840060AD50D48006850F040000B49E7
:100BF000086010480078C0430E4908700748006834
:100C000080060AD50548006850F0200003490860B6
:100C100009480078C043084908707047140401402F
:100C2000070000200000002001000020100000400C
:100C300006000020050000200400002019E050F804
:100C4000042BD30744BFA9F101039A18091F0023FD
:100C5000042942F8043BF9D25FEA817C134604D5AB
:100C60004FF0000CA2F800C09B1CC90744BF002134
:100C7000197050F8041B0029E1D1704710B50749DD
:100C800079441831064C7C44163404E00A68081D87
:100C9000114488470146A142F8D110BD0800000068
:100CA0001400000099FFFFFF080000000000002072
:100CB0000000000000F00DF8002801D0FFF7DEFF73
:100CC000AFF300800020AFF30080FFF743FE00F099
:100CD00002F80120704700F001B8000007463846CE
:100CE00000F002F8FBE7000080B5AFF30080024A95
:100CF00011001820ABBEFBE7260002000148804728
:100D000001480047F10900080D0D0008AFF300800D
:100D1000AFF30080FFF7CEFFFFF7FEBFFFF7FEBF88
:100D2000FFF7FEBFFFF7FEBFFFF7FEBFFFF7FEBFF7
:100D3000FFF7FEBFFFF7FEBFFFF7FEBFFFF7FEBFE7
:100D4000FFF7FEBFFFF7FEBFFFF7FEBFFFF7FEBFD7
:100D5000FFF7FEBFFFF7FEBFFFF7FEBFFFF7FEBFC7
:100D6000FFF7FEBFFFF7FEBFFFF7FEBFFFF7FEBFB7
:100D7000FFF7FEBFFFF7FEBFFFF7FEBFFFF7FEBFA7
:100D8000FFF7FEBFFFF7FEBFFFF7FEBFFFF7FEBF97
:100D9000FFF7FEBFFFF7FEBFFFF7FEBFFFF7FEBF87
:100DA000FFF7FEBFFFF7FEBFFFF7FEBFFFF7FEBF77
:100DB000FFF7FEBFFFF7FEBFFFF7FEBFFFF7FEBF67
:100DC000FFF7FEBFFFF7FEBFFFF7FEBFFFF7FEBF57
:100DD000FFF7FEBFFFF7FEBFFFF7FEBFFFF7FEBF47
:0C0DE000FFF7FEBFFFF7FEBFFFF7FEBFEE
:0400000508000D0DD5
:00000001FF
