:020000040800F2
:1000000000100020C50400089304000895040008AF
:1000100097040008990400089B04000800000000F1
:100020000000000000000000000000009D04000827
:100030009F04000800000000A1040008A3040008B9
:10004000E1040008E5040008E9040008ED040008E4
:10005000F1040008F5040008F9040008FD04000894
:100060000105000805050008090500080D05000840
:100070001105000815050008190500081D050008F0
:100080002105000825050008290500082D050008A0
:100090003105000835050008390500083D05000850
:1000A0004105000845050008490500084D05000800
:1000B0005105000855050008590500085D050008B0
:1000C0006105000865050008690500086D05000860
:1000D0007105000875050008790500087D05000810
:1000E0008105000885050008890500088D050008C0
:1000F000910500080000000095050008990500081A
:100100009D050008A1050008A5050008A90500082F
:10011000AD050008B1050008B5050008B9050008DF
:10012000BD0500086448006850F00100624908609D
:100130006248006830F01000604908605F4800685D
:1001400050F020005D4908605C48006830F04000D5
:100150005A4908605948006850F0800057490860C3
:100160005748008850F008005549088054480088D6
:1001700050F00400524908805248006850F01000C6
:10018000504908604F48006830F020004D49086031
:100190004C48006850F040004A49086049480068EF
:1001A00030F08000474908604748006830F400603C
:1001B000454908604448006850F48060424908603E
:1001C0004148006850F400703F4908603E480068AC
:1001D00050F480703C4908603B48006830F40040AF
:1001E000394908603848006850F480403649086052
:1001F0003548006850F400503349086032480068C0
:1002000050F480503049086070473048008850F002
:1002100004002E4908802F4800888006FBD52C4812
:1002200000882A48008850F008002849088028489B
:10023000008827490880274800884006FBD52548C4
:1002400001884FF6BF700140224801807047224864
:10025000006850F40030204908601C48008850F4C1
:1002600000501A490880194801884EF6FF70014075
:1002700016480180194801884CF6FF700140174864
:100280000180174801884FF6BF7001401448018073
:1002900040F2836013490880114801884FF67F704F
:1002A00001400F480180094800884004400C07497C
:1002B00008807047000000001C3802400000024027
:1002C000040002400C000240200002400C440040A8
:1002D00004440040004400402438024010440040E0
:1002E000144400400844004080B55248006850F46F
:1002F00080705049086050480168504801404E489D
:1003000001604C4801684E4801404A480160494834
:10031000006830F48020474908604748006830F49E
:100320007D004549086000204649086000F005F856
:100330005FF000604449086001BD82B00020019078
:10034000002000903B48006850F480303949086034
:100350003848006810F4003000900198401C01906B
:100360000098002803D10198B0F5A04FF0D1314892
:100370000068800302D50120009001E00020009079
:100380000098012853D13148006850F004002F49EB
:1003900008602E48006850F002002C4908602B4885
:1003A000006850F00100294908602948006850F0B1
:1003B0008050274908604FF40060264908602648AD
:1003C0000068C006FBD41C4800681B4908601A4836
:1003D00000681949086018480068174908601648FD
:1003E000006830F47D00144908601348006850F438
:1003F0001100114908600F48006850F080700D49E5
:1004000008600C4800688001FBD50B480068800834
:100410008000094908600848006850F00300064958
:1004200008600548006810F00C000C28F9D102B0F3
:100430007047000000380240083802400CC0FF88B6
:10044000FEFFFEEE0C38024008ED00E0003C0240EA
:1004500024380240007000400470004000F00DF8A5
:10046000002801D0AFF30080AFF300800020AFF38D
:10047000008000F004F800F00AF80120704780B511
:10048000FFF750FEFFF7E3FEFFF7BFFEFCE700F0CB
:1004900009B87047FEE7FEE7FEE7FEE770477047E2
:1004A000704770470746384600F002F8FBE7000047
:1004B00080B5AFF30080024A11001820ABBEFBE705
:1004C000260002000148804701480047E902000871
:1004D000D5040008AFF30080AFF30080FFF7BEFF44
:1004E000FFF7FEBFFFF7FEBFFFF7FEBFFFF7FEBF40
:1004F000FFF7FEBFFFF7FEBFFFF7FEBFFFF7FEBF30
:10050000FFF7FEBFFFF7FEBFFFF7FEBFFFF7FEBF1F
:10051000FFF7FEBFFFF7FEBFFFF7FEBFFFF7FEBF0F
:10052000FFF7FEBFFFF7FEBFFFF7FEBFFFF7FEBFFF
:10053000FFF7FEBFFFF7FEBFFFF7FEBFFFF7FEBFEF
:10054000FFF7FEBFFFF7FEBFFFF7FEBFFFF7FEBFDF
:10055000FFF7FEBFFFF7FEBFFFF7FEBFFFF7FEBFCF
:10056000FFF7FEBFFFF7FEBFFFF7FEBFFFF7FEBFBF
:10057000FFF7FEBFFFF7FEBFFFF7FEBFFFF7FEBFAF
:10058000FFF7FEBFFFF7FEBFFFF7FEBFFFF7FEBF9F
:10059000FFF7FEBFFFF7FEBFFFF7FEBFFFF7FEBF8F
:1005A000FFF7FEBFFFF7FEBFFFF7FEBFFFF7FEBF7F
:1005B000FFF7FEBFFFF7FEBFFFF7FEBFFFF7FEBF6F
:04000005080004D516
:00000001FF
