:020000040800F2
:100000000810002039120008E10F0008E30F000873
:10001000E50F0008E70F0008E90F000800000000E6
:10002000000000000000000000000000EB0F0008CE
:10003000ED0F000800000000EF0F0008F10F0008AE
:100040005D120008611200086512000869120008BC
:100050006D1200087112000875120008791200086C
:100060007D1200088112000885120008891200081C
:100070008D120008911200089512000899120008CC
:100080009D120008A1120008A5120008A91200087C
:10009000AD120008B1120008B51200085B1000088C
:1000A000B9120008BD120008C1120008C5120008EC
:1000B00041100008C9120008CD120008D112000832
:1000C000D5120008D9120008DD120008E11200085C
:1000D000E5120008E9120008ED120008F11200080C
:1000E000F30F0008F5120008F9120008FD120008CD
:1000F00001130008000000000513000809130008A0
:100100000D13000811130008151300081913000837
:100110001D130008211300082513000829130008E7
:100120002D1300080020DFF8A41708700020DFF866
:10013000A01708700020DFF89C1708700020DFF877
:1001400098170870DFF89407006850F00100DFF896
:100150008C170860DFF88807006850F48050DFF8DB
:1001600080170860DFF87C07006830F48060DFF8F3
:1001700074170860DFF86C07006850F40060DFF85F
:1001800064170860DFF85C07006830F48040DFF82F
:1001900054170860DFF84C07006850F40040DFF89F
:1001A00044170860DFF83C07006830F40030DFF8DF
:1001B00034170860DFF82C07006850F48030DFF84F
:1001C00024170860DFF8200701884FF6DF70014030
:1001D000DFF814070180DFF8100701884FF67F7001
:1001E0000140DFF804070180DFF8FC0601884FF6C4
:1001F000FF600140DFF8F0060180DFF8F0060068DC
:1002000050F4A000DFF8E4160860DFF8E0060068AC
:1002100050F0A040DFF8D4160860DFF8D40601885B
:100220004FF6F7700140DFF8C8060180DFF8C0061E
:10023000008850F01000DFF8B8160880DFF8B0062C
:1002400001884FF6DF700140DFF8A4060180DFF877
:10025000A006008850F00100DFF894160880DFF84F
:100260009006008850F00200DFF884160880DFF85E
:100270008006008850F00400DFF874160880DFF86C
:10028000700601884FF2FF700140DFF864060180BC
:10029000DFF85C0601884FF67F700140DFF85006FA
:1002A0000180DFF84C06008850F48040DFF84016EB
:1002B0000880DFF83C06008850F40040DFF8301674
:1002C0000880DFF83006008850F00400DFF82416BC
:1002D0000880DFF81C06008850F04000DFF8101698
:1002E0000880704738B504000D0000F01EF800F0DB
:1002F00025F82000C0B200F00DF82800C0B200F0D0
:1003000009F8DFF8F405008880B20006F9D400F09F
:100310000CF831BDDFF8E015098889B28907F9D5F5
:10032000C0B2DFF8D81508807047DFF8D405008820
:1003300050F48070DFF8C81508807047DFF8C005FA
:1003400001884FF6FF600140DFF8B4050180704777
:1003500080B500210C20FFF7C5FF01210C20FFF71D
:10036000C1FF0A210A20FFF7BDFF0F210920FFF777
:10037000B9FF03210B20FFF7B5FF00210F20FFF786
:10038000B1FF00210120FFF7ADFF00210220FFF7A0
:10039000A9FF00210320FFF7A5FF00210420FFF79C
:1003A000A1FF01BDDFF85C05006850F00100DFF837
:1003B00054150860DFF8500501884FF6FE700140C3
:1003C000DFF8440501805FF08040008850F00100B4
:1003D0005FF0804108805FF0804001884FF6EF7049
:1003E00001405FF0804001805FF0804001884FF65F
:1003F0009F7001405FF0804001805FF08040008886
:1004000050F080005FF08041088040F67F40DFF8C8
:10041000FC14088040F6C410DFF8F414086070473C
:10042000DFF8F004006850F08050DFF8E81408604E
:10043000DFF8E404008850F00100DFF8DC140880E5
:10044000DFF8D804006850F48070DFF8D01408603A
:10045000DFF8C004006850F40000DFF8B81408604A
:10046000DFF87C04006850F00100DFF874140860C5
:10047000DFF8AC04006850F40060DFF8A4140860F2
:10048000DFF8A004006850F40060DFF898140860FA
:10049000DFF88C04006850F48050DFF884140860A2
:1004A000DFF88004006850F48050DFF878140860AA
:1004B000DFF86C04006850F02000DFF86414086076
:1004C000DFF86004006850F02000DFF8581408607E
:1004D000DFF84C04006850F04000DFF84414086076
:1004E000DFF84004006850F04000DFF8381408607E
:1004F000DFF83404006830F48050DFF82C14086012
:10050000DFF82404006830F40050DFF81C140860A1
:10051000DFF81404006830F48040DFF80C14086041
:10052000DFF80404006830F40040DFF8FC130860D2
:10053000DFF8F803006840084000DFF8F0130860B7
:10054000DFF8E803006830F00200DFF8E01308602D
:10055000DFF8D803006830F00400DFF8D01308603B
:10056000DFF8C803006830F00800DFF8C013086047
:10057000DFF8BC03006830F01000DFF8B413086047
:10058000DFF8AC03006850F02000DFF8A413086027
:10059000DFF89C03006830F04000DFF89413086037
:1005A000DFF88C03006830F08000DFF88413086007
:1005B000DFF87C03006830F48070DFF874130860A3
:1005C000DFF86C03006850F40070DFF86413086013
:1005D000DFF85C03006830F48060DFF854130860D3
:1005E000DFF84C03006830F40060DFF84413086063
:1005F0007047C0B2002876D0012876D0022876D085
:10060000032876D0042876D0052876D0062876D020
:10061000072876D0082876D0092876D0202860D000
:10062000302860D0312860D0322860D0332860D0A4
:10063000342860D0352860D0362860D0372860D084
:10064000382860D0392860D0412860D0422860D056
:10065000432860D0442860D0452860D0462860D028
:10066000472860D0482860D0492860D04A2860D008
:100670004C2860D04E2860D04F2860D0502860D0E1
:10068000512860D0522860D0532860D0542860D0C0
:10069000552860D061283AD062283AD063283AD0F1
:1006A00064283AD065283AD066283AD067283AD0EC
:1006B00068283AD069283AD06A283AD06C283AD0CB
:1006C0006E283AD06F283AD070283AD071283AD0A4
:1006D00072283AD073283AD074283AD075283AD084
:1006E0003BE000203AE07E2038E0302036E06D200C
:1006F00034E0792032E0332030E05B202EE05F20D0
:100700002CE070202AE07F2028E07B2026E0772064
:1007100024E07F2022E04E2020E07E201EE04F20BB
:100720001CE047201AE05E2018E0372016E0062083
:1007300014E03C2012E00E2010E076200EE07E2037
:100740000CE067200AE0732008E0662006E05B20EA
:1007500004E00F2002E03E2000E000207047F8B5E2
:10076000040000250026734807782078002800F050
:10077000AB802020FFF73DFF0100C9B20120FFF749
:10078000B1FD2020FFF735FF0100C9B20220FFF7BD
:10079000A9FD2020FFF72DFF0100C9B20320FFF7BC
:1007A000A1FD2020FFF725FF0100C9B20420FFF7BB
:1007B00099FD761CF6B2A05D0028FAD15D4800785C
:1007C0003900C9B28842F9D05A480778FF43EDB2E0
:1007D000605DFFF70EFF0100C9B20120FFF782FD47
:1007E000F6B2022E0BDBEDB204EB05004078FFF70A
:1007F00000FF0100C9B20220FFF774FD07E02020CE
:10080000FFF7F7FE0100C9B20220FFF76BFDF6B259
:10081000032E0BDBEDB204EB05008078FFF7E9FE59
:100820000100C9B20320FFF75DFD07E02020FFF7BC
:10083000E0FE0100C9B20320FFF754FDF6B2042E1A
:100840000BDBEDB204EB0500C078FFF7D2FE010030
:10085000C9B20420FFF746FD07E02020FFF7C9FEDC
:100860000100C9B20420FFF73DFD3248007839008D
:10087000C9B2884223D12F480778FF436D1C20203E
:10088000FFF7B7FE0100C9B20120FFF72BFD2020C2
:10089000FFF7AFFE0100C9B20220FFF723FD2020C1
:1008A000FFF7A7FE0100C9B20320FFF71BFD2020C0
:1008B000FFF79FFE0100C9B20420FFF713FDEDB260
:1008C000E81CF6B2B04282DBF1BD0000020000205D
:1008D0000300002004000020050000201C38024016
:1008E0002038024000000240040002402000024084
:1008F0000030014004300140083001400C3001401C
:10090000140002402438024010000040280000403B
:100910002C00004000E100E00C00004004E100E099
:10092000000401400C04014010000140140001408B
:100930000C000140060000200100481E0029FBD1E8
:100940007047DFF84003006850F00200DFF834130E
:100950000860DFF83403006850F00400DFF8281363
:100960000860C948006830F00800C7490860C648F8
:10097000006850F01000C4490860C348006830F0B7
:100980002000C1490860C048006850F48010BE498A
:100990000860BD48006830F40010BB490860BA48E0
:1009A000006850F48000B8490860B748006830F427
:1009B0000000B5490860B448006850F08070B24942
:1009C0000860B148006830F00070AF490860AE4878
:1009D000006850F08060AC490860AB48006830F0B7
:1009E0000060A9490860A848006850F08050A649F6
:1009F0000860A548006830F00050A3490860A2488C
:100A0000006850F08040A04908609F48006820F0CE
:100A100000409D4908609D4801884FF6FD700140E7
:100A20009A480180994801884FF6FB700140974829
:100A30000180964801884FF6FF30014093480180BD
:100A4000924801884FF2FF700140904801808F4822
:100A500001884EF6FF7001408C4801808B48018868
:100A60004DF6FF70014089480180884801884BF6A7
:100A7000FF70014085480180844800884004400C94
:100A800082490880704710B50024F7E0804800884C
:100A900050F002007E4908804CF25030FFF74CFFC6
:100AA0007B48008850F00400794908804CF25030AF
:100AB000FFF742FF7648008850F480607449088050
:100AC0004CF25030FFF738FF7148008850F4006056
:100AD0006F4908804CF25030FFF72EFF6C480088B9
:100AE00050F480506A4908804CF25030FFF724FFE0
:100AF0006748008850F40050654908804CF2503037
:100B0000FFF71AFF6248008850F48040604908806F
:100B10004CF25030FFF710FF5D48008850F4004061
:100B20005B4908804CF25030FFF706FF58480088B8
:100B300050F00200564908804CF25030FFF7FCFE9E
:100B4000534801884FF6FD700140514801804CF236
:100B50005030FFF7F1FE4E48008850F004004C4939
:100B600008804CF25030FFF7E7FE494801884FF605
:100B7000FB700140464801804CF25030FFF7DCFE2C
:100B80004348008850F48060414908804CF250305E
:100B9000FFF7D2FE3E4801884FF6FF3001403C4847
:100BA00001804CF25030FFF7C7FE3948008850F4FE
:100BB0000060374908804CF25030FFF7BDFE3448E2
:100BC00001884FF2FF700140314801804CF25030F3
:100BD000FFF7B2FE2E48008850F480502C49088060
:100BE0004CF25030FFF7A8FE294801884EF6FF70FE
:100BF0000140274801804CF25030FFF79DFE244809
:100C0000008850F40050224908804CF25030FFF721
:100C100093FE1F4801884DF6FF7001401C4801807B
:100C20004CF25030FFF788FE1948008850F480409D
:100C3000174908804CF25030FFF77EFE14480188B7
:100C40004BF6FF700140124801804CF25030FFF724
:100C500073FE0F48008850F400400D4908804CF2A4
:100C60005030FFF769FE0A4800884004400C0849EC
:100C700008804CF25030FFF75FFE641C0A2CFFF630
:100C800005AF10BD1C3802400004024004040240BD
:100C9000140402406848006850F00100664908608A
:100CA0006648006830F010006449086063480068D6
:100CB00050F02000614908606048006830F0400052
:100CC0005E4908605D48006850F080005B4908603C
:100CD0005B48008850F0080059490880584800884F
:100CE00050F00400564908805648006850F0100043
:100CF000544908605348006830F0200051490860AA
:100D00005048006850F040004E4908604D48006867
:100D100030F080004B4908604B48006830F40060B8
:100D2000494908604848006850F4806046490860B6
:100D30004548006850F40070434908604248006824
:100D400050F48070404908603F48006830F400402B
:100D50003D4908603C48006850F480403A490860CA
:100D60003948006850F40050374908603648006838
:100D700050F480503449086070473449098851F074
:100D80000801324A1180C0B23149088031480088D8
:100D90004006FBD52F4801884FF6BF7001402D4813
:100DA0000180704780B52948008850F00400274929
:100DB0000880284800888006FBD525480088C0B2F6
:100DC0004F2804D12448FFF7CAFCFFF75CFE01BDA1
:100DD0002248006850F40030204908601B48008811
:100DE00050F4005019490880184801884EF6FF70E9
:100DF0000140164801801A4801884CF6FF700140F6
:100E000017480180174801884FF6BF700140154808
:100E1000018040F2836014490880124801884FF62F
:100E20007F7001400F480180084800884004400C52
:100E300006490880704700001C380240000002404C
:100E4000040002400C000240200002400C4400401C
:100E5000044400400044004054120008243802407A
:100E600010440040144400400844004080B55248FB
:100E7000006850F48070504908605048016850483C
:100E800001404E4801604C4801684E4801404A48C4
:100E900001604948006830F48020474908604748AD
:100EA000006830F47D00454908600020464908602C
:100EB00000F005F85FF000604449086001BD82B0B1
:100EC00000200190002000903B48006850F48030E2
:100ED000394908603848006810F4003000900198E3
:100EE000401C01900098002803D10198B0F5A04F54
:100EF000F0D131480068800302D50120009001E064
:100F0000002000900098012853D13148006850F02B
:100F100004002F4908602E48006850F002002C4958
:100F200008602B48006850F00100294908602948F2
:100F3000006850F08050274908604FF4006026494F
:100F4000086026480068C006FBD41C4800681B499E
:100F500008601A480068194908601848006817496D
:100F600008601648006830F47D0014490860134892
:100F7000006850F41100114908600F48006850F0F3
:100F800080700D4908600C4800688001FBD50B4853
:100F9000006880088000094908600848006850F02F
:100FA0000300064908600548006810F00C000C2892
:100FB000F9D102B070470000003802400838024002
:100FC0000CC0FF88FEFFFEEE0C38024008ED00E08A
:100FD000003C024024380240007000400470004091
:100FE0007047FEE7FEE7FEE7FEE770477047704791
:100FF000704780B528480068000511D54920274969
:10100000087026480078FFF7B8FE2348006850F4BF
:1010100000602149086022480078C04320490870D8
:101020001D480068C0040AD51B48006850F4805071
:10103000194908601B480078C0431A49087001BD6F
:10104000194801884FF6FE70014017480180174883
:101050000078C0431549087070470F480068400683
:101060000AD50D48006850F040000B490860104850
:101070000078C0430E4908700748006880060AD50A
:101080000548006850F020000349086009480078CE
:10109000C04308490870704714040140070000204D
:1010A0000000002001000020100000400600002089
:1010B000050000200400002080B5FFF7EBFDFFF7DE
:1010C00087FEFFF73EFCFFF7ABF900F02FF813485F
:1010D00001884FF6F9700140104801800020104946
:1010E000087000200F490870FFF71CF8FFF730F96F
:1010F000FFF758F9FFF794F9FFF714F8FFF728F90D
:10110000FFF750F9FFF78CF900210920FFF7EAF803
:1011100005480088FFF746FEFAE700001404024085
:101120000000002001000020100002400F4800686D
:1011300050F001000D4908600D48006830F440008F
:101140000B4908600A48006830F0407008490860A0
:101150000848006830F44000064908600548006807
:1011600030F0407003490860704700BF1C380240EF
:10117000000002400C00024019E050F8042BD30795
:1011800044BFA9F101039A18091F0023042942F85A
:10119000043BF9D25FEA817C134604D54FF0000C82
:1011A000A2F800C09B1CC90744BF0021197050F869
:1011B000041B0029E1D1704710B507497944183163
:1011C000064C7C44163404E00A68081D1144884724
:1011D0000146A142F8D110BD080000001400000033
:1011E00099FFFFFF08000000000000200000000041
:1011F00000F00DF8002801D0FFF7DEFFAFF300800C
:101200000020AFF30080FFF757FF00F002F8012045
:10121000704700F001B800000746384600F002F8B9
:10122000FBE7000080B5AFF30080024A11001820F0
:10123000ABBEFBE72600020001488047014800479B
:101240006D0E000849120008AFF30080AFF3008074
:10125000FFF7CEFF4F50454E494E4700FFF7FEBF08
:10126000FFF7FEBFFFF7FEBFFFF7FEBFFFF7FEBFB2
:10127000FFF7FEBFFFF7FEBFFFF7FEBFFFF7FEBFA2
:10128000FFF7FEBFFFF7FEBFFFF7FEBFFFF7FEBF92
:10129000FFF7FEBFFFF7FEBFFFF7FEBFFFF7FEBF82
:1012A000FFF7FEBFFFF7FEBFFFF7FEBFFFF7FEBF72
:1012B000FFF7FEBFFFF7FEBFFFF7FEBFFFF7FEBF62
:1012C000FFF7FEBFFFF7FEBFFFF7FEBFFFF7FEBF52
:1012D000FFF7FEBFFFF7FEBFFFF7FEBFFFF7FEBF42
:1012E000FFF7FEBFFFF7FEBFFFF7FEBFFFF7FEBF32
:1012F000FFF7FEBFFFF7FEBFFFF7FEBFFFF7FEBF22
:10130000FFF7FEBFFFF7FEBFFFF7FEBFFFF7FEBF11
:10131000FFF7FEBFFFF7FEBFFFF7FEBFFFF7FEBF01
:10132000FFF7FEBFFFF7FEBFFFF7FEBFFFF7FEBFF1
:040000050800124994
:00000001FF
