:020000040800F2
:1000000000100020F9020008D3020008D502000801
:10001000D7020008D9020008DB0200080000000037
:10002000000000000000000000000000DD020008E9
:10003000DF02000800000000E1020008E3020008FF
:1000400015030008190300081D0300082103000818
:1000500025030008290300082D03000831030008C8
:1000600035030008390300083D0300084103000878
:1000700045030008490300084D0300085103000828
:1000800055030008590300085D03000861030008D8
:1000900065030008690300086D0300087103000888
:1000A00075030008790300087D0300088103000838
:1000B00085030008890300088D03000891030008E8
:1000C00095030008990300089D030008A103000898
:1000D000A5030008A9030008AD030008B103000848
:1000E000B5030008B9030008BD030008C1030008F8
:1000F000C503000800000000C9030008CD03000884
:10010000D1030008D5030008D9030008DD03000867
:10011000E1030008E5030008E9030008ED03000817
:10012000F103000880B55248006850F480705049CF
:10013000086050480168504801404E4801604C48F2
:1001400001684E4801404A4801604948006830F45F
:100150008020474908604748006830F47D004549E1
:10016000086000204649086000F005F85FF0006074
:100170004449086001BD82B0002001900020009039
:100180003B48006850F480303949086038480068BE
:1001900010F4003000900198401C01900098002855
:1001A00003D10198B0F5A04FF0D131480068800329
:1001B00002D50120009001E0002000900098012865
:1001C00053D13148006850F004002F4908602E4890
:1001D000006850F002002C4908602B48006850F07D
:1001E0000100294908602948006850F080502749DB
:1001F00008604FF400602649086026480068C00681
:10020000FBD41C4800681B4908601A48006819495B
:10021000086018480068174908601648006830F4FC
:100220007D00144908601348006850F4110011491A
:1002300008600F48006850F080700D4908600C4855
:1002400000688001FBD50B480068800880000949E0
:1002500008600848006850F0030006490860054837
:10026000006810F00C000C28F9D102B070470000B3
:1002700000380240083802400CC0FF88FEFFFEEE46
:100280000C38024008ED00E0003C024024380240F7
:10029000007000400470004000F00DF8002801D00C
:1002A000AFF30080AFF300800020AFF3008000F0D8
:1002B00004F800F006F80120704780B500F003F85C
:1002C000FCE700F001B870470746384600F00AF82E
:1002D000FBE77047FEE7FEE7FEE7FEE77047704783
:1002E0007047704780B5AFF30080024A11001820B4
:1002F000ABBEFBE7260002000148804701480047EB
:100300002501000809030008AFF30080AFF3008067
:10031000FFF7C2FFFFF7FEBFFFF7FEBFFFF7FEBF0D
:10032000FFF7FEBFFFF7FEBFFFF7FEBFFFF7FEBF01
:10033000FFF7FEBFFFF7FEBFFFF7FEBFFFF7FEBFF1
:10034000FFF7FEBFFFF7FEBFFFF7FEBFFFF7FEBFE1
:10035000FFF7FEBFFFF7FEBFFFF7FEBFFFF7FEBFD1
:10036000FFF7FEBFFFF7FEBFFFF7FEBFFFF7FEBFC1
:10037000FFF7FEBFFFF7FEBFFFF7FEBFFFF7FEBFB1
:10038000FFF7FEBFFFF7FEBFFFF7FEBFFFF7FEBFA1
:10039000FFF7FEBFFFF7FEBFFFF7FEBFFFF7FEBF91
:1003A000FFF7FEBFFFF7FEBFFFF7FEBFFFF7FEBF81
:1003B000FFF7FEBFFFF7FEBFFFF7FEBFFFF7FEBF71
:1003C000FFF7FEBFFFF7FEBFFFF7FEBFFFF7FEBF61
:1003D000FFF7FEBFFFF7FEBFFFF7FEBFFFF7FEBF51
:1003E000FFF7FEBFFFF7FEBFFFF7FEBFFFF7FEBF41
:0403F000FFF7FEBF56
:0400000508000309E3
:00000001FF
