:020000040800F2
:1000000000100020ED020008C7020008C902000825
:10001000CB020008CD020008CF020008000000005B
:10002000000000000000000000000000D1020008F5
:10003000D302000800000000D5020008D702000823
:10004000090300080D030008110300081503000848
:10005000190300081D0300082103000825030008F8
:10006000290300082D0300083103000835030008A8
:10007000390300083D030008410300084503000858
:10008000490300084D030008510300085503000808
:10009000590300085D0300086103000865030008B8
:1000A000690300086D030008710300087503000868
:1000B000790300087D030008810300088503000818
:1000C000890300088D0300089103000895030008C8
:1000D000990300089D030008A1030008A503000878
:1000E000A9030008AD030008B1030008B503000828
:1000F000B903000800000000BD030008C1030008A8
:10010000C5030008C9030008CD030008D103000897
:10011000D5030008D9030008DD030008E103000847
:10012000E503000880B55248006850F480705049DB
:10013000086050480068504908404E4908604C48E3
:1001400000684E4908404A4908604948006830F450
:100150008020474908604748006830F47D004549E1
:10016000086000204649086000F005F85FF0006074
:100170004449086001BD82B0002001900020009039
:100180003B48006850F480303949086038480068BE
:1001900010F4003000900198401C01900098002855
:1001A00003D10198B0F5A04FF0D131480068800329
:1001B00002D50120009001E0002000900098012865
:1001C00053D13148006850F004002F4908602E4890
:1001D000006850F002002C4908602B48006850F07D
:1001E0000100294908602948006850F080502749DB
:1001F00008604FF400602649086026480068C00681
:10020000FBD41C4800681B4908601A48006819495B
:10021000086018480068174908601648006830F4FC
:100220007D00144908601348006850F4110011491A
:1002300008600F48006850F080700D4908600C4855
:1002400000688001FBD50B480068800880000949E0
:1002500008600848006850F0030006490860054837
:10026000006810F00C000C28F9D102B070470000B3
:1002700000380240083802400CC0FF88FEFFFEEE46
:100280000C38024008ED00E0003C024024380240F7
:10029000007000400470004000F00BF8002801D00E
:1002A000AFF300800020AFF3008000F004F800F00E
:1002B00003F801207047FEE700F000B80746384613
:1002C00000F00AF8FBE77047FEE7FEE7FEE7FEE70F
:1002D000704770477047704780B5AFF30080024A9F
:1002E00011001820ABBEFBE7260002000148804742
:1002F0000148004725010008FD020008AFF3008017
:10030000AFF30080FFF7C8FFFFF7FEBFFFF7FEBFA8
:10031000FFF7FEBFFFF7FEBFFFF7FEBFFFF7FEBF11
:10032000FFF7FEBFFFF7FEBFFFF7FEBFFFF7FEBF01
:10033000FFF7FEBFFFF7FEBFFFF7FEBFFFF7FEBFF1
:10034000FFF7FEBFFFF7FEBFFFF7FEBFFFF7FEBFE1
:10035000FFF7FEBFFFF7FEBFFFF7FEBFFFF7FEBFD1
:10036000FFF7FEBFFFF7FEBFFFF7FEBFFFF7FEBFC1
:10037000FFF7FEBFFFF7FEBFFFF7FEBFFFF7FEBFB1
:10038000FFF7FEBFFFF7FEBFFFF7FEBFFFF7FEBFA1
:10039000FFF7FEBFFFF7FEBFFFF7FEBFFFF7FEBF91
:1003A000FFF7FEBFFFF7FEBFFFF7FEBFFFF7FEBF81
:1003B000FFF7FEBFFFF7FEBFFFF7FEBFFFF7FEBF71
:1003C000FFF7FEBFFFF7FEBFFFF7FEBFFFF7FEBF61
:1003D000FFF7FEBFFFF7FEBFFFF7FEBFFFF7FEBF51
:0803E000FFF7FEBFFFF7FEBFAF
:04000005080002FDF0
:00000001FF
